{
  "_format": "hh-sol-artifact-1",
  "contractName": "MessageStorage",
  "sourceName": "contracts/MessageStorage.sol",
  "abi": [
    {
      "inputs": [],
      "stateMutability": "nonpayable",
      "type": "constructor"
    },
    {
      "anonymous": false,
      "inputs": [
        {
          "indexed": false,
          "internalType": "string",
          "name": "newMessage",
          "type": "string"
        }
      ],
      "name": "MessageStored",
      "type": "event"
    },
    {
      "inputs": [],
      "name": "owner",
      "outputs": [
        {
          "internalType": "address",
          "name": "",
          "type": "address"
        }
      ],
      "stateMutability": "view",
      "type": "function"
    },
    {
      "inputs": [],
      "name": "retrieveMessage",
      "outputs": [
        {
          "internalType": "string",
          "name": "",
          "type": "string"
        }
      ],
      "stateMutability": "view",
      "type": "function"
    },
    {
      "inputs": [
        {
          "internalType": "string",
          "name": "_message",
          "type": "string"
        }
      ],
      "name": "storeMessage",
      "outputs": [],
      "stateMutability": "nonpayable",
      "type": "function"
    }
  ],
  "bytecode": "0x6080604052348015600f57600080fd5b50336000806101000a81548173ffffffffffffffffffffffffffffffffffffffff021916908373ffffffffffffffffffffffffffffffffffffffff16021790555061087c8061005f6000396000f3fe608060405234801561001057600080fd5b50600436106100415760003560e01c8063485caefc146100465780638da5cb5b14610064578063d4e36ba714610082575b600080fd5b61004e61009e565b60405161005b91906102bc565b60405180910390f35b61006c610130565b604051610079919061031f565b60405180910390f35b61009c60048036038101906100979190610483565b610154565b005b6060600180546100ad906104fb565b80601f01602080910402602001604051908101604052809291908181526020018280546100d9906104fb565b80156101265780601f106100fb57610100808354040283529160200191610126565b820191906000526020600020905b81548152906001019060200180831161010957829003601f168201915b5050505050905090565b60008054906101000a900473ffffffffffffffffffffffffffffffffffffffff1681565b60008054906101000a900473ffffffffffffffffffffffffffffffffffffffff1673ffffffffffffffffffffffffffffffffffffffff163373ffffffffffffffffffffffffffffffffffffffff16146101e2576040517f08c379a00000000000000000000000000000000000000000000000000000000081526004016101d99061059e565b60405180910390fd5b80600190816101f19190610774565b507f22c2a3a1dcfcd9a26676800829d4de849e614f2861c6969a30cf5881ceb19b828160405161022191906102bc565b60405180910390a150565b600081519050919050565b600082825260208201905092915050565b60005b8381101561026657808201518184015260208101905061024b565b60008484015250505050565b6000601f19601f8301169050919050565b600061028e8261022c565b6102988185610237565b93506102a8818560208601610248565b6102b181610272565b840191505092915050565b600060208201905081810360008301526102d68184610283565b905092915050565b600073ffffffffffffffffffffffffffffffffffffffff82169050919050565b6000610309826102de565b9050919050565b610319816102fe565b82525050565b60006020820190506103346000830184610310565b92915050565b6000604051905090565b600080fd5b600080fd5b600080fd5b600080fd5b7f4e487b7100000000000000000000000000000000000000000000000000000000600052604160045260246000fd5b61039082610272565b810181811067ffffffffffffffff821117156103af576103ae610358565b5b80604052505050565b60006103c261033a565b90506103ce8282610387565b919050565b600067ffffffffffffffff8211156103ee576103ed610358565b5b6103f782610272565b9050602081019050919050565b82818337600083830152505050565b6000610426610421846103d3565b6103b8565b90508281526020810184848401111561044257610441610353565b5b61044d848285610404565b509392505050565b600082601f83011261046a5761046961034e565b5b813561047a848260208601610413565b91505092915050565b60006020828403121561049957610498610344565b5b600082013567ffffffffffffffff8111156104b7576104b6610349565b5b6104c384828501610455565b91505092915050565b7f4e487b7100000000000000000000000000000000000000000000000000000000600052602260045260246000fd5b6000600282049050600182168061051357607f821691505b602082108103610526576105256104cc565b5b50919050565b7f4f6e6c79206f776e65722063616e2063616c6c20746869732066756e6374696f60008201527f6e00000000000000000000000000000000000000000000000000000000000000602082015250565b6000610588602183610237565b91506105938261052c565b604082019050919050565b600060208201905081810360008301526105b78161057b565b9050919050565b60008190508160005260206000209050919050565b60006020601f8301049050919050565b600082821b905092915050565b6000600883026106207fffffffffffffffffffffffffffffffffffffffffffffffffffffffffffffffff826105e3565b61062a86836105e3565b95508019841693508086168417925050509392505050565b6000819050919050565b6000819050919050565b600061067161066c61066784610642565b61064c565b610642565b9050919050565b6000819050919050565b61068b83610656565b61069f61069782610678565b8484546105f0565b825550505050565b600090565b6106b46106a7565b6106bf818484610682565b505050565b5b818110156106e3576106d86000826106ac565b6001810190506106c5565b5050565b601f821115610728576106f9816105be565b610702846105d3565b81016020851015610711578190505b61072561071d856105d3565b8301826106c4565b50505b505050565b600082821c905092915050565b600061074b6000198460080261072d565b1980831691505092915050565b6000610764838361073a565b9150826002028217905092915050565b61077d8261022c565b67ffffffffffffffff81111561079657610795610358565b5b6107a082546104fb565b6107ab8282856106e7565b600060209050601f8311600181146107de57600084156107cc578287015190505b6107d68582610758565b86555061083e565b601f1984166107ec866105be565b60005b82811015610814578489015182556001820191506020850194506020810190506107ef565b86831015610831578489015161082d601f89168261073a565b8355505b6001600288020188555050505b50505050505056fea264697066735822122049f490a599f512c31284c8b1b97379a2ae03178f580aed79e4fd4423fae90c2b64736f6c634300081c0033",
  "linkReferences": {},
  "deployedLinkReferences": {}
}